:020000040801F1
:10000000200C002045010108F1040108D303010878
:10001000ED0401088D010108C1070108000000007E
:100020000000000000000000000000004B06010876
:100030009101010800000000F30401085D070108B8
:100040005F0101085F0101085F0101085F0101080C
:100050005F0101085F0101085F0101085F010108FC
:100060005F0101085F0101085F0101085F010108EC
:100070005F0101085F0101085F0101085F010108DC
:100080005F0101085F0101085F0101085F010108CC
:100090005F0101085F0101085F0101085F010108BC
:1000A0005F0101085F0101085F0101085F010108AC
:1000B0005F0101085F0101085F0101085F0101089C
:1000C0005F0101085F0101085F0101085F0101088C
:1000D0005F0101085F0101085F0101085F0101087C
:1000E0005F0101085F0101085F0101085F0101086C
:1000F0005F0101085F0101085F0101085F0101085C
:100100005F0101085F0101085F0101085F0101084B
:100110005F0101085F0101085F0101085F0101083B
:100120005F0101085F0101085F0101085F0101082B
:10013000DFF80CD000F018F80048004775080108F7
:10014000200C00200648804706480047FEE7FEE7EF
:10015000FEE7FEE7FEE7FEE7FEE7FEE7FEE7FEE777
:100160006107010831010108064C074D06E0E0680F
:1001700040F0010394E8070098471034AC42F6D3EE
:10018000FFF7DAFFC4080108E408010800BFFEE732
:100190007047000030B5044604254FF4302000F0CD
:1001A0006FF80546042D17D10C48006940F0020095
:1001B0000A49086108464461006940F0400008614E
:1001C0004FF4302000F05CF805460448006941F621
:1001D000FD71084001490861284630BD00200240F9
:1001E00004200B49C96801F0010109B101200EE0AA
:1001F0000749C96801F0040109B1022007E0044978
:10020000C96801F0100109B1032000E00420704723
:10021000002002400348006940F080000149086165
:10022000704700000020024070B504460D460426C9
:10023000F00200F025F80646042E11D109480069A5
:1002400040F00100074908612580F00200F018F82D
:1002500006460448006941F6FE71084001490861FC
:10026000304670BD00200240024803494860034800
:10027000486070472301674500200240AB89EFCDFD
:1002800000B502460423FFF7ABFF034603E0FFF788
:10029000A7FF0346521E012B01D1002AF7D102B954
:1002A0000523184600BD2DE9F04102460025002631
:1002B000002000230024002791F803C00CF00F0554
:1002C00091F803C00CF0100CBCF1000F03D091F8B2
:1002D00002C04CEA050591F800C0BCF1000F31D016
:1002E000146800202BE04FF0010C0CFA00F3B1F879
:1002F00000C00CEA03069E4220D183004FF00F0C91
:100300000CFA03F7BC4305FA03FC4CEA040491F829
:1003100003C0BCF1280F06D14FF0010C0CFA00FC11
:10032000C2F814C00AE091F803C0BCF1480F05D12F
:100330004FF0010C0CFA00FCC2F810C0401C082859
:10034000D1D31460B1F800C0BCF1FF0F34DD5468A4
:1003500000202EE000F1080C4FF0010808FA0CF321
:10036000B1F800C00CEA03069E4221D183004FF091
:100370000F0C0CFA03F7BC4305FA03FC4CEA040427
:1003800091F803C0BCF1280F05D100F1080C08FA60
:100390000CF8C2F8148091F803C0BCF1480F07D1E3
:1003A00000F1080C4FF0010808FA0CF8C2F81080B0
:1003B000401C0828CED35460BDE8F08102460020DE
:1003C00093680B400BB1012000E0002070470161F1
:1003D000704700BFFEE7000008B50121442000F08F
:1003E00089F81820ADF8000048208DF80300694610
:1003F0000648FFF758FF0120ADF8000028208DF8CF
:10040000030069460248FFF74EFF08BD001801408F
:100410000008014010B5044614B1012023490870BA
:100420002248007858B310212148FFF7C7FF50B188
:1004300008211F48FFF7C2FF28B101211D48FFF71F
:10044000BDFF01281BD10A2000F0EEF9002017495A
:10045000087010211648FFF7B1FF08B9012010BD40
:1004600008211348FFF7AAFF08B90220F7E7012186
:100470001048FFF7A3FF012815D10320EFE7102153
:100480000B48FFF79BFF01280DD108210848FFF713
:1004900095FF012807D101210648FFF78FFF10B90A
:1004A0000120024908700020D9E700001400002054
:1004B000001801400008014008B50121082000F0A3
:1004C00019F82020ADF8000010208DF8030003205B
:1004D0008DF8020069460448FFF7E5FE2021024836
:1004E000FFF775FF08BD0000000C014000BFFEE7EC
:1004F0007047704729B1064A92690243044B9A61DA
:1005000004E0034A92698243014B9A6170470000FC
:100510000010024030B503460C461546002207E0A5
:10052000184600F008F824F812009B1C501C82B2F8
:10053000AA42F5DB30BD0146088870472DE9F05F1F
:1005400080468A461746B8F1006F02D3334880458B
:1005500001D3BDE8F09FFFF787FEA8F1006B4FEADB
:10056000DB25CBF34909C9F58064A74200DC3C4692
:100570004DE04FF0006101EBC5204A142849FFF718
:10058000C9FF00260BE009EB0600254931F81000F1
:100590004FF6FF71884200D003E0701C86B2A6427D
:1005A000F1DB00BFA6421BDA4FF0006101EBC52072
:1005B000FFF7F0FD002608E03AF8160006EB090107
:1005C000174A22F81100701C86B2A642F4DB4FF0E5
:1005D000006101EBC5204A14114900F023F804E042
:1005E00022465146404600F01DF8A74200D10FE0D8
:1005F0006D1C4FF000090AEB440AA044381B87B277
:10060000B7F5806F02DD4FF4806400E03C46B0E750
:1006100000BFFFF7FFFD00BF9BE7000000000808D8
:100620001C0000202DE9F04105460E461746002427
:1006300007E036F814102846FFF7F6FDAD1C601CE5
:1006400084B2BC42F5DBBDE8F081704710B500F024
:1006500001F810BD0CB500200190009033480068EF
:1006600040F480303149086000BF3048006800F431
:10067000003000900198401C0190009818B9019832
:10068000B0F5A06FF1D12948006800F4003010B136
:100690000120009001E0002000900098012843D143
:1006A0002348006840F010002149086008460068AF
:1006B00020F0030008600846006840F0020008606F
:1006C0001A4840681949486008464068486008462A
:1006D000406840F4806048600846406820F47C1020
:1006E00048600846406840F4E810486008460068E2
:1006F00040F08070086000BF0C48006800F0007097
:100700000028F9D00948406820F0030007494860F4
:100710000846406840F00200486000BF0348406857
:1007200000F00C000828F9D10CBD000000100240B8
:1007300000200240042808D14FF0E021096941F06F
:1007400004014FF0E022116107E04FF0E021096958
:1007500021F004014FF0E022116170477047000062
:1007600010B51348006840F00100114908600846C0
:100770004068104908400E494860084600680E4924
:1007800008400B4908600846006820F48020086093
:100790000846406820F4FE0048604FF41F0088605F
:1007A000FFF754FF4FF000600449086010BD0000DF
:1007B000001002400000FFF8FFFFF6FE08ED00E029
:1007C00000BFFEE702E008C8121F08C1002AFAD1E4
:1007D00070477047002001E001C1121F002AFBD1C1
:1007E0007047000010B56FF00400FFF7A3FF0A4840
:1007F00000680A49B0FBF1F0094908800846008802
:1008000000EB4001C1EBC0104FF6FF7101EAC000E0
:100810000449088010BD00000000002000127A008A
:1008200016000020180000200146114A12884A4391
:100830004FF0E0235A6100229A611A46126942F091
:1008400001021A6100BF4FF0E022106900F00102BE
:100850001AB100F48032002AF5D04FF0E02212697C
:1008600022F001024FF0E0231A6100229A617047E2
:100870001800002008B5002000900E480E490860BE
:10088000FFF71AFEFFF7A8FDFFF7ACFF20200B498A
:1008900008600EE00020FFF7BDFD04462020074958
:1008A000091D0860012C04D1012269460448FFF7A4
:1008B00045FEEFE70000010808ED00E0100C0140E4
:1008C00000500708E4080108000000201C00000098
:1008D000C4070108000901081C000020040C0000E6
:1008E000D407010800A24A04000000000000000034
:1008F00001020304060708090100000000000000CF
:0400000508010131BC
:00000001FF
