:020000040800F2
:10000000380C00204D010008CD030008C50300088E
:10001000C903000895010008410A0008000000001B
:10002000000000000000000000000000A30600081F
:10003000990100080000000075040008B5070008D9
:1000400067010008670100086701000867010008F0
:1000500067010008670100086701000867010008E0
:1000600067010008670100086701000867010008D0
:1000700067010008670100086701000867010008C0
:1000800067010008670100086701000867010008B0
:1000900067010008670100086701000867010008A0
:1000A0006701000867010008670100086701000890
:1000B0006701000867010008670100086701000880
:1000C0006701000867010008670100086701000870
:1000D00067010008A9080008670100086701000817
:1000E0006701000867010008670100086701000850
:1000F0006701000867010008670100086701000840
:10010000670100086701000867010008670100082F
:10011000670100086701000867010008670100081F
:10012000670100086701000867010008670100080F
:10013000DFF80CD000F01CF800480047DD0B000889
:10014000380C002080F3088870470000064880477C
:1001500006480047FEE7FEE7FEE7FEE7FEE7FEE7AC
:10016000FEE7FEE7FEE7FEE7B907000831010008F9
:10017000064C074D06E0E06840F0010394E80700F4
:1001800098471034AC42F6D3FFF7D6FFE80C0008CE
:10019000080D000800BFFEE77047000030B50446B8
:1001A00004254FF4302000F06FF80546042D17D1D8
:1001B0000C48006940F002000A49086108464461A1
:1001C000006940F0400008614FF4302000F05CF816
:1001D00005460448006941F6FD710840014908617F
:1001E000284630BD0020024004200B49C96801F0B8
:1001F000010109B101200EE00749C96801F00401BD
:1002000009B1022007E00449C96801F0100109B1F1
:10021000032000E0042070470020024003480069EA
:1002200040F0800001490861704700000020024052
:1002300070B504460D460426F00200F025F8064687
:10024000042E11D10948006940F0010007490861F6
:100250002580F00200F018F806460448006941F6CF
:10026000FE71084001490861304670BD002002401F
:1002700002480349486003484860704723016745C6
:1002800000200240AB89EFCD00B502460423FFF702
:10029000ABFF034603E0FFF7A7FF0346521E012B07
:1002A00001D1002AF7D102B90523184600BD2DE976
:1002B000F0410246002500260020002300240027EC
:1002C00091F803C00CF00F0591F803C00CF0100C6E
:1002D000BCF1000F03D091F802C04CEA050591F87B
:1002E00000C0BCF1000F31D0146800202BE04FF0AB
:1002F000010C0CFA00F3B1F800C00CEA03069E42B0
:1003000020D183004FF00F0C0CFA03F7BC4305FA21
:1003100003FC4CEA040491F803C0BCF1280F06D199
:100320004FF0010C0CFA00FCC2F814C00AE091F87E
:1003300003C0BCF1480F05D14FF0010C0CFA00FCD2
:10034000C2F810C0401C0828D1D31460B1F800C016
:10035000BCF1FF0F34DD546800202EE000F1080CE2
:100360004FF0010808FA0CF3B1F800C00CEA0306DC
:100370009E4221D183004FF00F0C0CFA03F7BC43CF
:1003800005FA03FC4CEA040491F803C0BCF1280F01
:1003900005D100F1080C08FA0CF8C2F8148091F8A5
:1003A00003C0BCF1480F07D100F1080C4FF0010861
:1003B00008FA0CF8C2F81080401C0828CED354600C
:1003C000BDE8F08100BFFEE700BFFEE7704708B55B
:1003D00025208DF8000000208DF8010003208DF805
:1003E000020001208DF80300684600F001F808BD06
:1003F00070B5002100230F22C47804B3154C246883
:1004000004F4E064C4F5E064210AC1F10403CA40C5
:10041000447804FA03F184781440214309010E4C16
:100420000678A155047804F01F050124AC40057836
:100430006D11AD0005F1E025C5F8004109E0047833
:1004400004F01F050124AC40044D0678761145F8F0
:10045000264070BD0CED00E000E400E080E100E02B
:1004600002490143024A1160704700000000FA058A
:100470000CED00E07047000029B1064A9269024382
:10048000044B9A6104E0034A92698243014B9A61EA
:10049000704700000010024030B500210022002407
:1004A00000232D4D6D6805F00C0121B1042905D004
:1004B000082923D105E0294D056022E0274D05607C
:1004C0001FE0254D6D6805F47012234D6D6805F42D
:1004D0008034022505EB92421CB9214D554305603D
:1004E0000BE01D4D6D6805F400351DB11C4D5543E5
:1004F000056002E0194D5543056002E0174D0560A7
:1005000000BF00BF144D6D6805F0F0010909154DDD
:100510006B5C0568DD4045600F4D6D6805F4E0617A
:10052000090A104D6B5C4568DD4085600A4D6D68B9
:1005300005F46051C90A0B4D6B5C4568DD40C56030
:10054000054D6D6805F44041890B074D6B5CC5682E
:10055000B5FBF3F5056130BD0010024000127A00D2
:1005600000093D00140000202400002030B503469F
:100570000C461546002207E0184600F008F824F85B
:1005800012009B1C501C82B2AA42F5DB30BD014612
:10059000088870472DE9F05F80468A461746B8F113
:1005A000006F02D33348804501D3BDE8F09FFFF7C9
:1005B0005FFEA8F1006B4FEADB25CBF34909C9F5D3
:1005C0008064A74200DC3C464DE04FF0006101EB47
:1005D000C5204A142849FFF7C9FF00260BE009EBA4
:1005E0000600254931F810004FF6FF71884200D00F
:1005F00003E0701C86B2A642F1DB00BFA6421BDA04
:100600004FF0006101EBC520FFF7C8FD002608E0B0
:100610003AF8160006EB0901174A22F81100701C7F
:1006200086B2A642F4DB4FF0006101EBC5204A140C
:10063000114900F023F804E022465146404600F0FC
:100640001DF8A74200D10FE06D1C4FF000090AEB26
:10065000440AA044381B87B2B7F5806F02DD4FF41F
:10066000806400E03C46B0E700BFFFF7D7FD00BF65
:100670009BE7000000000808380000202DE9F04149
:1006800005460E461746002407E036F814102846A3
:10069000FFF7CEFDAD1C601C84B2BC42F5DBBDE8AB
:1006A000F081704710B500F001F810BD0CB50020C6
:1006B000019000903348006840F480303149086070
:1006C00000BF3048006800F4003000900198401CE2
:1006D0000190009818B90198B0F5A06FF1D12948A0
:1006E000006800F4003010B10120009001E000200B
:1006F00000900098012843D12348006840F0100082
:10070000214908600846006820F003000860084698
:10071000006840F0020008601A48406819494860C3
:100720000846406848600846406840F48060486079
:100730000846406820F47C1048600846406840F451
:10074000E81048600846006840F08070086000BF0C
:100750000C48006800F000700028F9D00948406893
:1007600020F00300074948600846406840F0020056
:10077000486000BF0348406800F00C000828F9D129
:100780000CBD00000010024000200240042808D1E7
:100790004FF0E021096941F004014FF0E0221161BE
:1007A00007E04FF0E021096921F004014FF0E02259
:1007B000116170477047000010B51348006840F0A1
:1007C00001001149086008464068104908400E4978
:1007D0004860084600680E4908400B490860084612
:1007E000006820F4802008600846406820F4FE007D
:1007F00048604FF41F008860FFF754FF4FF000601F
:100800000449086010BD0000001002400000FFF81D
:10081000FFFFF6FE08ED00E000B585B001210420E1
:10082000FFF72AFE01218803FFF726FE4FF4007030
:10083000ADF8100018208DF8130003208DF8120079
:1008400004A91748FFF733FD4FF48060ADF810009E
:1008500004208DF8130004A91148FFF728FD4FF478
:10086000E13000900020ADF80400ADF80600ADF8CE
:100870000800ADF80C000C20ADF80A0069460948E4
:1008800000F06EF8FFF7A3FD012240F22551054864
:1008900000F041F80121034800F024F805B000BD44
:1008A00000080140003801400B49098801F020018F
:1008B00089B10949091D0988C8B208490988B1F5F3
:1008C0005C4F08DA0649054A1288885403490988AA
:1008D000491C024A1180704700380140280000205E
:1008E0000010002021B1828942F40052828104E08C
:1008F00082894DF6FF731A408281704702460020BC
:10090000B1F5007F00D100BF13880B400BB101206F
:1009100000E000207047F0B50346002400260025C3
:10092000002040F66A17B94200D100BF1846C1F353
:10093000421401F01F06012707FA06F5012C01D128
:100940000C3004E0022C01D1103000E014301AB158
:1009500007682F43076002E00768AF430760F0BDF8
:100960002DE9F04786B005460E460024A24600BF9A
:10097000A1460027B08900B100BF2F462C8A4CF653
:10098000FF700440F08804432C82AC894EF6F310CB
:100990000440B08831890843718908430443AC811D
:1009A000AC8A4FF6FF400440B0890443AC8201A8F2
:1009B000FFF772FD1F48874202D1DDF810A001E069
:1009C000DDF80CA0A88900F4004040B10AEBCA0091
:1009D00000EB0A1031684900B0FBF1F807E00AEBC0
:1009E000CA0000EB0A1031688900B0FBF1F86420FE
:1009F000B8FBF0F004012009642101FB1089A889EB
:100A000000F4004040B1322000EBC900B0FBF1F02F
:100A100000F00700044308E0322000EB09106421D5
:100A2000B0FBF1F000F00F0004432C8106B0BDE8EC
:100A3000F087000000380140C1F30802828070474F
:100A400000BFFEE7014A024900F013B8250B000879
:100A50003400002002E008C8121F08C1002AFAD1A1
:100A600070477047002001E001C1121F002AFBD12E
:100A700070472DE9F04116460F460446002503E075
:100A80003946B047641C6D1C20780028F8D12846F0
:100A9000BDE8F08110B56FF00400FFF777FE0A485B
:100AA00000680A49B0FBF1F009490880084600884F
:100AB00000EB4001C1EBC0104FF6FF7101EAC0002E
:100AC0000449088010BD00000000002000127A00D8
:100AD0002A0000202C0000200146114A12884A43B7
:100AE0004FF0E0235A6100229A611A46126942F0DF
:100AF00001021A6100BF4FF0E022106900F001020C
:100B00001AB100F48032002AF5D04FF0E0221269C9
:100B100022F001024FF0E0231A6100229A6170472F
:100B20002C00002070B504460D46E1B20548FFF7E1
:100B300083FF00BF80210348FFF7E0FE0028F9D0C3
:100B4000204670BD0038014010B5044620680749B2
:100B50000840B0F1005F08D160680549086020686E
:100B6000FFF7F0FA02480068804710BD0000FE2F32
:100B7000300000202DE9F05F06460F469046002425
:100B8000B3463D46A1461CE068784FEA002A287823
:100B900050441FFA80FAAD1C2046611C8CB20E49ED
:100BA00021F810A0B4F5806F07D100244FF48062C3
:100BB0005846FFF7EFFC0BF5006B09F102001FFA36
:100BC00080F9C145E0D324B1224603495846FFF7D6
:100BD000E1FCBDE8F09F000000EC002008B500201B
:100BE000009000250024AA2000900122694629488F
:100BF000FFF7D0FCBB2000902648FFF7C8FC009010
:100C0000002000904FF4A060FFF72AFCFFF704FEDD
:100C1000FFF740FF3DE02048008860B11E48008893
:100C2000854206D11C480488002500201A49088006
:100C300001E0194805880A20FFF74EFFCCB117A044
:100C4000FFF700FF1A48406800F07F40B0F1006FE6
:100C50000FD1224617491848FFF78CFF17A0FFF75E
:100C6000F1FE01200090012269460A48FFF792FC3C
:100C70000024BDF8000060B114A0FFF7E3FE0E48A9
:100C8000406800F07F40B0F1006F02D10A48FFF7E2
:100C90005BFFC0E70050070828000020BFAACABCBD
:100CA000B8FCD0C2B9CCBCFE2E2E2E0D0A0000001E
:100CB000001000200010002000000108B9CCBCFE8C
:100CC000B8FCD0C2CDEAB3C9210D0A00BFAACABC84
:100CD000D6B4D0D0464C415348D3C3BBA7B4FAC214
:100CE000EB21210D0A000000080D00080000002083
:100CF00038000000540A0008400D000838000020A9
:100D0000C8F30000640A000800A24A0400000000C2
:100D100000000000010203040607080900000000AB
:100D2000010203040102030406070809020406087D
:100D300000000000000000000000000000000000B3
:0400000508000131BD
:00000001FF
